{
  "_format": "hh-sol-artifact-1",
  "contractName": "LSTToken",
  "sourceName": "contracts/LSTToken.sol",
  "abi": [
    {
      "inputs": [],
      "stateMutability": "nonpayable",
      "type": "constructor"
    },
    {
      "inputs": [],
      "name": "ECDSAInvalidSignature",
      "type": "error"
    },
    {
      "inputs": [
        {
          "internalType": "uint256",
          "name": "length",
          "type": "uint256"
        }
      ],
      "name": "ECDSAInvalidSignatureLength",
      "type": "error"
    },
    {
      "inputs": [
        {
          "internalType": "bytes32",
          "name": "s",
          "type": "bytes32"
        }
      ],
      "name": "ECDSAInvalidSignatureS",
      "type": "error"
    },
    {
      "inputs": [
        {
          "internalType": "address",
          "name": "spender",
          "type": "address"
        },
        {
          "internalType": "uint256",
          "name": "allowance",
          "type": "uint256"
        },
        {
          "internalType": "uint256",
          "name": "needed",
          "type": "uint256"
        }
      ],
      "name": "ERC20InsufficientAllowance",
      "type": "error"
    },
    {
      "inputs": [
        {
          "internalType": "address",
          "name": "sender",
          "type": "address"
        },
        {
          "internalType": "uint256",
          "name": "balance",
          "type": "uint256"
        },
        {
          "internalType": "uint256",
          "name": "needed",
          "type": "uint256"
        }
      ],
      "name": "ERC20InsufficientBalance",
      "type": "error"
    },
    {
      "inputs": [
        {
          "internalType": "address",
          "name": "approver",
          "type": "address"
        }
      ],
      "name": "ERC20InvalidApprover",
      "type": "error"
    },
    {
      "inputs": [
        {
          "internalType": "address",
          "name": "receiver",
          "type": "address"
        }
      ],
      "name": "ERC20InvalidReceiver",
      "type": "error"
    },
    {
      "inputs": [
        {
          "internalType": "address",
          "name": "sender",
          "type": "address"
        }
      ],
      "name": "ERC20InvalidSender",
      "type": "error"
    },
    {
      "inputs": [
        {
          "internalType": "address",
          "name": "spender",
          "type": "address"
        }
      ],
      "name": "ERC20InvalidSpender",
      "type": "error"
    },
    {
      "inputs": [],
      "name": "InvalidShortString",
      "type": "error"
    },
    {
      "inputs": [
        {
          "internalType": "address",
          "name": "owner",
          "type": "address"
        }
      ],
      "name": "OwnableInvalidOwner",
      "type": "error"
    },
    {
      "inputs": [
        {
          "internalType": "address",
          "name": "account",
          "type": "address"
        }
      ],
      "name": "OwnableUnauthorizedAccount",
      "type": "error"
    },
    {
      "inputs": [
        {
          "internalType": "string",
          "name": "str",
          "type": "string"
        }
      ],
      "name": "StringTooLong",
      "type": "error"
    },
    {
      "anonymous": false,
      "inputs": [
        {
          "indexed": true,
          "internalType": "address",
          "name": "owner",
          "type": "address"
        },
        {
          "indexed": true,
          "internalType": "address",
          "name": "spender",
          "type": "address"
        },
        {
          "indexed": false,
          "internalType": "uint256",
          "name": "value",
          "type": "uint256"
        }
      ],
      "name": "Approval",
      "type": "event"
    },
    {
      "anonymous": false,
      "inputs": [],
      "name": "EIP712DomainChanged",
      "type": "event"
    },
    {
      "anonymous": false,
      "inputs": [
        {
          "indexed": true,
          "internalType": "address",
          "name": "previousOwner",
          "type": "address"
        },
        {
          "indexed": true,
          "internalType": "address",
          "name": "newOwner",
          "type": "address"
        }
      ],
      "name": "OwnershipTransferred",
      "type": "event"
    },
    {
      "anonymous": false,
      "inputs": [
        {
          "indexed": true,
          "internalType": "address",
          "name": "from",
          "type": "address"
        },
        {
          "indexed": true,
          "internalType": "address",
          "name": "to",
          "type": "address"
        },
        {
          "indexed": false,
          "internalType": "uint256",
          "name": "value",
          "type": "uint256"
        }
      ],
      "name": "Transfer",
      "type": "event"
    },
    {
      "inputs": [],
      "name": "TRANSFER_TYPEHASH",
      "outputs": [
        {
          "internalType": "bytes32",
          "name": "",
          "type": "bytes32"
        }
      ],
      "stateMutability": "view",
      "type": "function"
    },
    {
      "inputs": [
        {
          "internalType": "address",
          "name": "owner",
          "type": "address"
        },
        {
          "internalType": "address",
          "name": "spender",
          "type": "address"
        }
      ],
      "name": "allowance",
      "outputs": [
        {
          "internalType": "uint256",
          "name": "",
          "type": "uint256"
        }
      ],
      "stateMutability": "view",
      "type": "function"
    },
    {
      "inputs": [
        {
          "internalType": "address",
          "name": "spender",
          "type": "address"
        },
        {
          "internalType": "uint256",
          "name": "value",
          "type": "uint256"
        }
      ],
      "name": "approve",
      "outputs": [
        {
          "internalType": "bool",
          "name": "",
          "type": "bool"
        }
      ],
      "stateMutability": "nonpayable",
      "type": "function"
    },
    {
      "inputs": [
        {
          "internalType": "address",
          "name": "account",
          "type": "address"
        }
      ],
      "name": "balanceOf",
      "outputs": [
        {
          "internalType": "uint256",
          "name": "",
          "type": "uint256"
        }
      ],
      "stateMutability": "view",
      "type": "function"
    },
    {
      "inputs": [
        {
          "internalType": "uint256",
          "name": "amount",
          "type": "uint256"
        }
      ],
      "name": "burn",
      "outputs": [],
      "stateMutability": "nonpayable",
      "type": "function"
    },
    {
      "inputs": [],
      "name": "decimals",
      "outputs": [
        {
          "internalType": "uint8",
          "name": "",
          "type": "uint8"
        }
      ],
      "stateMutability": "view",
      "type": "function"
    },
    {
      "inputs": [],
      "name": "eip712Domain",
      "outputs": [
        {
          "internalType": "bytes1",
          "name": "fields",
          "type": "bytes1"
        },
        {
          "internalType": "string",
          "name": "name",
          "type": "string"
        },
        {
          "internalType": "string",
          "name": "version",
          "type": "string"
        },
        {
          "internalType": "uint256",
          "name": "chainId",
          "type": "uint256"
        },
        {
          "internalType": "address",
          "name": "verifyingContract",
          "type": "address"
        },
        {
          "internalType": "bytes32",
          "name": "salt",
          "type": "bytes32"
        },
        {
          "internalType": "uint256[]",
          "name": "extensions",
          "type": "uint256[]"
        }
      ],
      "stateMutability": "view",
      "type": "function"
    },
    {
      "inputs": [
        {
          "internalType": "address",
          "name": "from",
          "type": "address"
        },
        {
          "internalType": "address",
          "name": "to",
          "type": "address"
        },
        {
          "internalType": "uint256",
          "name": "amount",
          "type": "uint256"
        },
        {
          "internalType": "uint256",
          "name": "nonce",
          "type": "uint256"
        },
        {
          "internalType": "bytes",
          "name": "signature",
          "type": "bytes"
        }
      ],
      "name": "executeMetaTransfer",
      "outputs": [
        {
          "internalType": "bool",
          "name": "",
          "type": "bool"
        }
      ],
      "stateMutability": "nonpayable",
      "type": "function"
    },
    {
      "inputs": [
        {
          "internalType": "address",
          "name": "user",
          "type": "address"
        }
      ],
      "name": "getNonce",
      "outputs": [
        {
          "internalType": "uint256",
          "name": "",
          "type": "uint256"
        }
      ],
      "stateMutability": "view",
      "type": "function"
    },
    {
      "inputs": [
        {
          "internalType": "address",
          "name": "to",
          "type": "address"
        },
        {
          "internalType": "uint256",
          "name": "amount",
          "type": "uint256"
        }
      ],
      "name": "mint",
      "outputs": [],
      "stateMutability": "nonpayable",
      "type": "function"
    },
    {
      "inputs": [],
      "name": "name",
      "outputs": [
        {
          "internalType": "string",
          "name": "",
          "type": "string"
        }
      ],
      "stateMutability": "view",
      "type": "function"
    },
    {
      "inputs": [
        {
          "internalType": "address",
          "name": "",
          "type": "address"
        }
      ],
      "name": "nonces",
      "outputs": [
        {
          "internalType": "uint256",
          "name": "",
          "type": "uint256"
        }
      ],
      "stateMutability": "view",
      "type": "function"
    },
    {
      "inputs": [],
      "name": "owner",
      "outputs": [
        {
          "internalType": "address",
          "name": "",
          "type": "address"
        }
      ],
      "stateMutability": "view",
      "type": "function"
    },
    {
      "inputs": [],
      "name": "renounceOwnership",
      "outputs": [],
      "stateMutability": "nonpayable",
      "type": "function"
    },
    {
      "inputs": [],
      "name": "symbol",
      "outputs": [
        {
          "internalType": "string",
          "name": "",
          "type": "string"
        }
      ],
      "stateMutability": "view",
      "type": "function"
    },
    {
      "inputs": [],
      "name": "totalSupply",
      "outputs": [
        {
          "internalType": "uint256",
          "name": "",
          "type": "uint256"
        }
      ],
      "stateMutability": "view",
      "type": "function"
    },
    {
      "inputs": [
        {
          "internalType": "address",
          "name": "to",
          "type": "address"
        },
        {
          "internalType": "uint256",
          "name": "value",
          "type": "uint256"
        }
      ],
      "name": "transfer",
      "outputs": [
        {
          "internalType": "bool",
          "name": "",
          "type": "bool"
        }
      ],
      "stateMutability": "nonpayable",
      "type": "function"
    },
    {
      "inputs": [
        {
          "internalType": "address",
          "name": "from",
          "type": "address"
        },
        {
          "internalType": "address",
          "name": "to",
          "type": "address"
        },
        {
          "internalType": "uint256",
          "name": "value",
          "type": "uint256"
        }
      ],
      "name": "transferFrom",
      "outputs": [
        {
          "internalType": "bool",
          "name": "",
          "type": "bool"
        }
      ],
      "stateMutability": "nonpayable",
      "type": "function"
    },
    {
      "inputs": [
        {
          "internalType": "address",
          "name": "newOwner",
          "type": "address"
        }
      ],
      "name": "transferOwnership",
      "outputs": [],
      "stateMutability": "nonpayable",
      "type": "function"
    }
  ],
  "bytecode": "0x6101606040523480156200001257600080fd5b506040518060400160405280601081526020017f4c6173744d696e75746520546f6b656e000000000000000000000000000000008152506040518060400160405280600181526020017f3100000000000000000000000000000000000000000000000000000000000000815250336040518060400160405280601081526020017f4c6173744d696e75746520546f6b656e000000000000000000000000000000008152506040518060400160405280600381526020017f4c535400000000000000000000000000000000000000000000000000000000008152508160039081620000fd9190620009c0565b5080600490816200010f9190620009c0565b505050600073ffffffffffffffffffffffffffffffffffffffff168173ffffffffffffffffffffffffffffffffffffffff1603620001875760006040517f1e4fbdf70000000000000000000000000000000000000000000000000000000081526004016200017e919062000aec565b60405180910390fd5b62000198816200028e60201b60201c565b50620001af6006836200035460201b90919060201c565b6101208181525050620001cd6007826200035460201b90919060201c565b6101408181525050818051906020012060e08181525050808051906020012061010081815250504660a081815250506200020c620003ac60201b60201c565b608081815250503073ffffffffffffffffffffffffffffffffffffffff1660c08173ffffffffffffffffffffffffffffffffffffffff1681525050505062000288336200025e6200040960201b60201c565b600a6200026c919062000c99565b620f42406200027c919062000cea565b6200041260201b60201c565b62000fa8565b6000600560009054906101000a900473ffffffffffffffffffffffffffffffffffffffff16905081600560006101000a81548173ffffffffffffffffffffffffffffffffffffffff021916908373ffffffffffffffffffffffffffffffffffffffff1602179055508173ffffffffffffffffffffffffffffffffffffffff168173ffffffffffffffffffffffffffffffffffffffff167f8be0079c531659141344cd1fd0a4f28419497f9722a3daafe3b4186f6b6457e060405160405180910390a35050565b60006020835110156200037a5762000372836200049f60201b60201c565b9050620003a6565b826200038c836200050c60201b60201c565b60000190816200039d9190620009c0565b5060ff60001b90505b92915050565b60007f8b73c3c69bb8fe3d512ecc4cf759cc79239f7b179b0ffacaa9a75d522b39400f60e051610100514630604051602001620003ee95949392919062000d61565b60405160208183030381529060405280519060200120905090565b60006012905090565b600073ffffffffffffffffffffffffffffffffffffffff168273ffffffffffffffffffffffffffffffffffffffff1603620004875760006040517fec442f050000000000000000000000000000000000000000000000000000000081526004016200047e919062000aec565b60405180910390fd5b6200049b600083836200051660201b60201c565b5050565b600080829050601f81511115620004ef57826040517f305a27a9000000000000000000000000000000000000000000000000000000008152600401620004e6919062000e4d565b60405180910390fd5b805181620004fd9062000ea3565b60001c1760001b915050919050565b6000819050919050565b600073ffffffffffffffffffffffffffffffffffffffff168373ffffffffffffffffffffffffffffffffffffffff16036200056c5780600260008282546200055f919062000f13565b9250508190555062000642565b60008060008573ffffffffffffffffffffffffffffffffffffffff1673ffffffffffffffffffffffffffffffffffffffff16815260200190815260200160002054905081811015620005fb578381836040517fe450d38c000000000000000000000000000000000000000000000000000000008152600401620005f29392919062000f4e565b60405180910390fd5b8181036000808673ffffffffffffffffffffffffffffffffffffffff1673ffffffffffffffffffffffffffffffffffffffff16815260200190815260200160002081905550505b600073ffffffffffffffffffffffffffffffffffffffff168273ffffffffffffffffffffffffffffffffffffffff16036200068d5780600260008282540392505081905550620006da565b806000808473ffffffffffffffffffffffffffffffffffffffff1673ffffffffffffffffffffffffffffffffffffffff168152602001908152602001600020600082825401925050819055505b8173ffffffffffffffffffffffffffffffffffffffff168373ffffffffffffffffffffffffffffffffffffffff167fddf252ad1be2c89b69c2b068fc378daa952ba7f163c4a11628f55a4df523b3ef8360405162000739919062000f8b565b60405180910390a3505050565b600081519050919050565b7f4e487b7100000000000000000000000000000000000000000000000000000000600052604160045260246000fd5b7f4e487b7100000000000000000000000000000000000000000000000000000000600052602260045260246000fd5b60006002820490506001821680620007c857607f821691505b602082108103620007de57620007dd62000780565b5b50919050565b60008190508160005260206000209050919050565b60006020601f8301049050919050565b600082821b905092915050565b600060088302620008487fffffffffffffffffffffffffffffffffffffffffffffffffffffffffffffffff8262000809565b62000854868362000809565b95508019841693508086168417925050509392505050565b6000819050919050565b6000819050919050565b6000620008a16200089b62000895846200086c565b62000876565b6200086c565b9050919050565b6000819050919050565b620008bd8362000880565b620008d5620008cc82620008a8565b84845462000816565b825550505050565b600090565b620008ec620008dd565b620008f9818484620008b2565b505050565b5b81811015620009215762000915600082620008e2565b600181019050620008ff565b5050565b601f82111562000970576200093a81620007e4565b6200094584620007f9565b8101602085101562000955578190505b6200096d6200096485620007f9565b830182620008fe565b50505b505050565b600082821c905092915050565b6000620009956000198460080262000975565b1980831691505092915050565b6000620009b0838362000982565b9150826002028217905092915050565b620009cb8262000746565b67ffffffffffffffff811115620009e757620009e662000751565b5b620009f38254620007af565b62000a0082828562000925565b600060209050601f83116001811462000a38576000841562000a23578287015190505b62000a2f8582620009a2565b86555062000a9f565b601f19841662000a4886620007e4565b60005b8281101562000a725784890151825560018201915060208501945060208101905062000a4b565b8683101562000a92578489015162000a8e601f89168262000982565b8355505b6001600288020188555050505b505050505050565b600073ffffffffffffffffffffffffffffffffffffffff82169050919050565b600062000ad48262000aa7565b9050919050565b62000ae68162000ac7565b82525050565b600060208201905062000b03600083018462000adb565b92915050565b7f4e487b7100000000000000000000000000000000000000000000000000000000600052601160045260246000fd5b60008160011c9050919050565b6000808291508390505b600185111562000b975780860481111562000b6f5762000b6e62000b09565b5b600185161562000b7f5780820291505b808102905062000b8f8562000b38565b945062000b4f565b94509492505050565b60008262000bb2576001905062000c85565b8162000bc2576000905062000c85565b816001811462000bdb576002811462000be65762000c1c565b600191505062000c85565b60ff84111562000bfb5762000bfa62000b09565b5b8360020a91508482111562000c155762000c1462000b09565b5b5062000c85565b5060208310610133831016604e8410600b841016171562000c565782820a90508381111562000c505762000c4f62000b09565b5b62000c85565b62000c65848484600162000b45565b9250905081840481111562000c7f5762000c7e62000b09565b5b81810290505b9392505050565b600060ff82169050919050565b600062000ca6826200086c565b915062000cb38362000c8c565b925062000ce27fffffffffffffffffffffffffffffffffffffffffffffffffffffffffffffffff848462000ba0565b905092915050565b600062000cf7826200086c565b915062000d04836200086c565b925082820262000d14816200086c565b9150828204841483151762000d2e5762000d2d62000b09565b5b5092915050565b6000819050919050565b62000d4a8162000d35565b82525050565b62000d5b816200086c565b82525050565b600060a08201905062000d78600083018862000d3f565b62000d87602083018762000d3f565b62000d96604083018662000d3f565b62000da5606083018562000d50565b62000db4608083018462000adb565b9695505050505050565b600082825260208201905092915050565b60005b8381101562000def57808201518184015260208101905062000dd2565b60008484015250505050565b6000601f19601f8301169050919050565b600062000e198262000746565b62000e25818562000dbe565b935062000e3781856020860162000dcf565b62000e428162000dfb565b840191505092915050565b6000602082019050818103600083015262000e69818462000e0c565b905092915050565b600081519050919050565b6000819050602082019050919050565b600062000e9a825162000d35565b80915050919050565b600062000eb08262000e71565b8262000ebc8462000e7c565b905062000ec98162000e8c565b9250602082101562000f0c5762000f077fffffffffffffffffffffffffffffffffffffffffffffffffffffffffffffffff8360200360080262000809565b831692505b5050919050565b600062000f20826200086c565b915062000f2d836200086c565b925082820190508082111562000f485762000f4762000b09565b5b92915050565b600060608201905062000f65600083018662000adb565b62000f74602083018562000d50565b62000f83604083018462000d50565b949350505050565b600060208201905062000fa2600083018462000d50565b92915050565b60805160a05160c05160e0516101005161012051610140516122cf620010036000396000610e7601526000610e3b0152600061170c015260006116eb0152600061139e015260006113f40152600061141d01526122cf6000f3fe608060405234801561001057600080fd5b50600436106101205760003560e01c806370a08231116100ad57806395d89b411161007157806395d89b4114610311578063a9059cbb1461032f578063d48994641461035f578063dd62ed3e1461038f578063f2fde38b146103bf57610120565b806370a0823114610265578063715018a6146102955780637ecebe001461029f57806384b0196e146102cf5780638da5cb5b146102f357610120565b806323b872dd116100f457806323b872dd146101af5780632d0335ab146101df578063313ce5671461020f57806340c10f191461022d57806342966c681461024957610120565b8062bf26f41461012557806306fdde0314610143578063095ea7b31461016157806318160ddd14610191575b600080fd5b61012d6103db565b60405161013a91906118b9565b60405180910390f35b61014b6103ff565b6040516101589190611964565b60405180910390f35b61017b60048036038101906101769190611a2e565b610491565b6040516101889190611a89565b60405180910390f35b6101996104b4565b6040516101a69190611ab3565b60405180910390f35b6101c960048036038101906101c49190611ace565b6104be565b6040516101d69190611a89565b60405180910390f35b6101f960048036038101906101f49190611b21565b6104ed565b6040516102069190611ab3565b60405180910390f35b610217610536565b6040516102249190611b6a565b60405180910390f35b61024760048036038101906102429190611a2e565b61053f565b005b610263600480360381019061025e9190611b85565b610555565b005b61027f600480360381019061027a9190611b21565b610562565b60405161028c9190611ab3565b60405180910390f35b61029d6105aa565b005b6102b960048036038101906102b49190611b21565b6105be565b6040516102c69190611ab3565b60405180910390f35b6102d76105d6565b6040516102ea9796959493929190611cba565b60405180910390f35b6102fb610680565b6040516103089190611d3e565b60405180910390f35b6103196106aa565b6040516103269190611964565b60405180910390f35b61034960048036038101906103449190611a2e565b61073c565b6040516103569190611a89565b60405180910390f35b61037960048036038101906103749190611e8e565b61075f565b6040516103869190611a89565b60405180910390f35b6103a960048036038101906103a49190611f25565b610931565b6040516103b69190611ab3565b60405180910390f35b6103d960048036038101906103d49190611b21565b6109b8565b005b7f286ecc3171aaa74d0fc76977f77dba38ee9f4f740604e0b628c1fcd79b69c95881565b60606003805461040e90611f94565b80601f016020809104026020016040519081016040528092919081815260200182805461043a90611f94565b80156104875780601f1061045c57610100808354040283529160200191610487565b820191906000526020600020905b81548152906001019060200180831161046a57829003601f168201915b5050505050905090565b60008061049c610a3e565b90506104a9818585610a46565b600191505092915050565b6000600254905090565b6000806104c9610a3e565b90506104d6858285610a58565b6104e1858585610aed565b60019150509392505050565b6000600860008373ffffffffffffffffffffffffffffffffffffffff1673ffffffffffffffffffffffffffffffffffffffff168152602001908152602001600020549050919050565b60006012905090565b610547610be1565b6105518282610c68565b5050565b61055f3382610cea565b50565b60008060008373ffffffffffffffffffffffffffffffffffffffff1673ffffffffffffffffffffffffffffffffffffffff168152602001908152602001600020549050919050565b6105b2610be1565b6105bc6000610d6c565b565b60086020528060005260406000206000915090505481565b6000606080600080600060606105ea610e32565b6105f2610e6d565b46306000801b600067ffffffffffffffff81111561061357610612611d63565b5b6040519080825280602002602001820160405280156106415781602001602082028036833780820191505090505b507f0f00000000000000000000000000000000000000000000000000000000000000959493929190965096509650965096509650965090919293949596565b6000600560009054906101000a900473ffffffffffffffffffffffffffffffffffffffff16905090565b6060600480546106b990611f94565b80601f01602080910402602001604051908101604052809291908181526020018280546106e590611f94565b80156107325780601f1061070757610100808354040283529160200191610732565b820191906000526020600020905b81548152906001019060200180831161071557829003601f168201915b5050505050905090565b600080610747610a3e565b9050610754818585610aed565b600191505092915050565b6000600860008773ffffffffffffffffffffffffffffffffffffffff1673ffffffffffffffffffffffffffffffffffffffff1681526020019081526020016000205483146107e2576040517f08c379a00000000000000000000000000000000000000000000000000000000081526004016107d990612011565b60405180910390fd5b600061083b7f286ecc3171aaa74d0fc76977f77dba38ee9f4f740604e0b628c1fcd79b69c95888888888604051602001610820959493929190612031565b60405160208183030381529060405280519060200120610ea8565b905060006108528483610ec290919063ffffffff16565b90508773ffffffffffffffffffffffffffffffffffffffff168173ffffffffffffffffffffffffffffffffffffffff16146108c2576040517f08c379a00000000000000000000000000000000000000000000000000000000081526004016108b9906120d0565b60405180910390fd5b600860008973ffffffffffffffffffffffffffffffffffffffff1673ffffffffffffffffffffffffffffffffffffffff16815260200190815260200160002060008154809291906109129061211f565b9190505550610922888888610aed565b60019250505095945050505050565b6000600160008473ffffffffffffffffffffffffffffffffffffffff1673ffffffffffffffffffffffffffffffffffffffff16815260200190815260200160002060008373ffffffffffffffffffffffffffffffffffffffff1673ffffffffffffffffffffffffffffffffffffffff16815260200190815260200160002054905092915050565b6109c0610be1565b600073ffffffffffffffffffffffffffffffffffffffff168173ffffffffffffffffffffffffffffffffffffffff1603610a325760006040517f1e4fbdf7000000000000000000000000000000000000000000000000000000008152600401610a299190611d3e565b60405180910390fd5b610a3b81610d6c565b50565b600033905090565b610a538383836001610eee565b505050565b6000610a648484610931565b90507fffffffffffffffffffffffffffffffffffffffffffffffffffffffffffffffff811015610ae75781811015610ad7578281836040517ffb8f41b2000000000000000000000000000000000000000000000000000000008152600401610ace93929190612167565b60405180910390fd5b610ae684848484036000610eee565b5b50505050565b600073ffffffffffffffffffffffffffffffffffffffff168373ffffffffffffffffffffffffffffffffffffffff1603610b5f5760006040517f96c6fd1e000000000000000000000000000000000000000000000000000000008152600401610b569190611d3e565b60405180910390fd5b600073ffffffffffffffffffffffffffffffffffffffff168273ffffffffffffffffffffffffffffffffffffffff1603610bd15760006040517fec442f05000000000000000000000000000000000000000000000000000000008152600401610bc89190611d3e565b60405180910390fd5b610bdc8383836110c5565b505050565b610be9610a3e565b73ffffffffffffffffffffffffffffffffffffffff16610c07610680565b73ffffffffffffffffffffffffffffffffffffffff1614610c6657610c2a610a3e565b6040517f118cdaa7000000000000000000000000000000000000000000000000000000008152600401610c5d9190611d3e565b60405180910390fd5b565b600073ffffffffffffffffffffffffffffffffffffffff168273ffffffffffffffffffffffffffffffffffffffff1603610cda5760006040517fec442f05000000000000000000000000000000000000000000000000000000008152600401610cd19190611d3e565b60405180910390fd5b610ce6600083836110c5565b5050565b600073ffffffffffffffffffffffffffffffffffffffff168273ffffffffffffffffffffffffffffffffffffffff1603610d5c5760006040517f96c6fd1e000000000000000000000000000000000000000000000000000000008152600401610d539190611d3e565b60405180910390fd5b610d68826000836110c5565b5050565b6000600560009054906101000a900473ffffffffffffffffffffffffffffffffffffffff16905081600560006101000a81548173ffffffffffffffffffffffffffffffffffffffff021916908373ffffffffffffffffffffffffffffffffffffffff1602179055508173ffffffffffffffffffffffffffffffffffffffff168173ffffffffffffffffffffffffffffffffffffffff167f8be0079c531659141344cd1fd0a4f28419497f9722a3daafe3b4186f6b6457e060405160405180910390a35050565b6060610e6860067f00000000000000000000000000000000000000000000000000000000000000006112ea90919063ffffffff16565b905090565b6060610ea360077f00000000000000000000000000000000000000000000000000000000000000006112ea90919063ffffffff16565b905090565b6000610ebb610eb561139a565b83611451565b9050919050565b600080600080610ed28686611492565b925092509250610ee282826114ee565b82935050505092915050565b600073ffffffffffffffffffffffffffffffffffffffff168473ffffffffffffffffffffffffffffffffffffffff1603610f605760006040517fe602df05000000000000000000000000000000000000000000000000000000008152600401610f579190611d3e565b60405180910390fd5b600073ffffffffffffffffffffffffffffffffffffffff168373ffffffffffffffffffffffffffffffffffffffff1603610fd25760006040517f94280d62000000000000000000000000000000000000000000000000000000008152600401610fc99190611d3e565b60405180910390fd5b81600160008673ffffffffffffffffffffffffffffffffffffffff1673ffffffffffffffffffffffffffffffffffffffff16815260200190815260200160002060008573ffffffffffffffffffffffffffffffffffffffff1673ffffffffffffffffffffffffffffffffffffffff1681526020019081526020016000208190555080156110bf578273ffffffffffffffffffffffffffffffffffffffff168473ffffffffffffffffffffffffffffffffffffffff167f8c5be1e5ebec7d5bd14f71427d1e84f3dd0314c0f7b2291e5b200ac8c7c3b925846040516110b69190611ab3565b60405180910390a35b50505050565b600073ffffffffffffffffffffffffffffffffffffffff168373ffffffffffffffffffffffffffffffffffffffff160361111757806002600082825461110b919061219e565b925050819055506111ea565b60008060008573ffffffffffffffffffffffffffffffffffffffff1673ffffffffffffffffffffffffffffffffffffffff168152602001908152602001600020549050818110156111a3578381836040517fe450d38c00000000000000000000000000000000000000000000000000000000815260040161119a93929190612167565b60405180910390fd5b8181036000808673ffffffffffffffffffffffffffffffffffffffff1673ffffffffffffffffffffffffffffffffffffffff16815260200190815260200160002081905550505b600073ffffffffffffffffffffffffffffffffffffffff168273ffffffffffffffffffffffffffffffffffffffff16036112335780600260008282540392505081905550611280565b806000808473ffffffffffffffffffffffffffffffffffffffff1673ffffffffffffffffffffffffffffffffffffffff168152602001908152602001600020600082825401925050819055505b8173ffffffffffffffffffffffffffffffffffffffff168373ffffffffffffffffffffffffffffffffffffffff167fddf252ad1be2c89b69c2b068fc378daa952ba7f163c4a11628f55a4df523b3ef836040516112dd9190611ab3565b60405180910390a3505050565b606060ff60001b83146113075761130083611652565b9050611394565b81805461131390611f94565b80601f016020809104026020016040519081016040528092919081815260200182805461133f90611f94565b801561138c5780601f106113615761010080835404028352916020019161138c565b820191906000526020600020905b81548152906001019060200180831161136f57829003601f168201915b505050505090505b92915050565b60007f000000000000000000000000000000000000000000000000000000000000000073ffffffffffffffffffffffffffffffffffffffff163073ffffffffffffffffffffffffffffffffffffffff1614801561141657507f000000000000000000000000000000000000000000000000000000000000000046145b15611443577f0000000000000000000000000000000000000000000000000000000000000000905061144e565b61144b6116c6565b90505b90565b60006040517f190100000000000000000000000000000000000000000000000000000000000081528360028201528260228201526042812091505092915050565b600080600060418451036114d75760008060006020870151925060408701519150606087015160001a90506114c98882858561175c565b9550955095505050506114e7565b60006002855160001b9250925092505b9250925092565b60006003811115611502576115016121d2565b5b826003811115611515576115146121d2565b5b031561164e576001600381111561152f5761152e6121d2565b5b826003811115611542576115416121d2565b5b03611579576040517ff645eedf00000000000000000000000000000000000000000000000000000000815260040160405180910390fd5b6002600381111561158d5761158c6121d2565b5b8260038111156115a05761159f6121d2565b5b036115e5578060001c6040517ffce698f70000000000000000000000000000000000000000000000000000000081526004016115dc9190611ab3565b60405180910390fd5b6003808111156115f8576115f76121d2565b5b82600381111561160b5761160a6121d2565b5b0361164d57806040517fd78bce0c00000000000000000000000000000000000000000000000000000000815260040161164491906118b9565b60405180910390fd5b5b5050565b6060600061165f83611850565b90506000602067ffffffffffffffff81111561167e5761167d611d63565b5b6040519080825280601f01601f1916602001820160405280156116b05781602001600182028036833780820191505090505b5090508181528360208201528092505050919050565b60007f8b73c3c69bb8fe3d512ecc4cf759cc79239f7b179b0ffacaa9a75d522b39400f7f00000000000000000000000000000000000000000000000000000000000000007f00000000000000000000000000000000000000000000000000000000000000004630604051602001611741959493929190612201565b60405160208183030381529060405280519060200120905090565b60008060007f7fffffffffffffffffffffffffffffff5d576e7357a4501ddfe92f46681b20a08460001c111561179c576000600385925092509250611846565b6000600188888888604051600081526020016040526040516117c19493929190612254565b6020604051602081039080840390855afa1580156117e3573d6000803e3d6000fd5b505050602060405103519050600073ffffffffffffffffffffffffffffffffffffffff168173ffffffffffffffffffffffffffffffffffffffff160361183757600060016000801b93509350935050611846565b8060008060001b935093509350505b9450945094915050565b60008060ff8360001c169050601f811115611897576040517fb3512b0c00000000000000000000000000000000000000000000000000000000815260040160405180910390fd5b80915050919050565b6000819050919050565b6118b3816118a0565b82525050565b60006020820190506118ce60008301846118aa565b92915050565b600081519050919050565b600082825260208201905092915050565b60005b8381101561190e5780820151818401526020810190506118f3565b60008484015250505050565b6000601f19601f8301169050919050565b6000611936826118d4565b61194081856118df565b93506119508185602086016118f0565b6119598161191a565b840191505092915050565b6000602082019050818103600083015261197e818461192b565b905092915050565b6000604051905090565b600080fd5b600080fd5b600073ffffffffffffffffffffffffffffffffffffffff82169050919050565b60006119c58261199a565b9050919050565b6119d5816119ba565b81146119e057600080fd5b50565b6000813590506119f2816119cc565b92915050565b6000819050919050565b611a0b816119f8565b8114611a1657600080fd5b50565b600081359050611a2881611a02565b92915050565b60008060408385031215611a4557611a44611990565b5b6000611a53858286016119e3565b9250506020611a6485828601611a19565b9150509250929050565b60008115159050919050565b611a8381611a6e565b82525050565b6000602082019050611a9e6000830184611a7a565b92915050565b611aad816119f8565b82525050565b6000602082019050611ac86000830184611aa4565b92915050565b600080600060608486031215611ae757611ae6611990565b5b6000611af5868287016119e3565b9350506020611b06868287016119e3565b9250506040611b1786828701611a19565b9150509250925092565b600060208284031215611b3757611b36611990565b5b6000611b45848285016119e3565b91505092915050565b600060ff82169050919050565b611b6481611b4e565b82525050565b6000602082019050611b7f6000830184611b5b565b92915050565b600060208284031215611b9b57611b9a611990565b5b6000611ba984828501611a19565b91505092915050565b60007fff0000000000000000000000000000000000000000000000000000000000000082169050919050565b611be781611bb2565b82525050565b611bf6816119ba565b82525050565b600081519050919050565b600082825260208201905092915050565b6000819050602082019050919050565b611c31816119f8565b82525050565b6000611c438383611c28565b60208301905092915050565b6000602082019050919050565b6000611c6782611bfc565b611c718185611c07565b9350611c7c83611c18565b8060005b83811015611cad578151611c948882611c37565b9750611c9f83611c4f565b925050600181019050611c80565b5085935050505092915050565b600060e082019050611ccf600083018a611bde565b8181036020830152611ce1818961192b565b90508181036040830152611cf5818861192b565b9050611d046060830187611aa4565b611d116080830186611bed565b611d1e60a08301856118aa565b81810360c0830152611d308184611c5c565b905098975050505050505050565b6000602082019050611d536000830184611bed565b92915050565b600080fd5b600080fd5b7f4e487b7100000000000000000000000000000000000000000000000000000000600052604160045260246000fd5b611d9b8261191a565b810181811067ffffffffffffffff82111715611dba57611db9611d63565b5b80604052505050565b6000611dcd611986565b9050611dd98282611d92565b919050565b600067ffffffffffffffff821115611df957611df8611d63565b5b611e028261191a565b9050602081019050919050565b82818337600083830152505050565b6000611e31611e2c84611dde565b611dc3565b905082815260208101848484011115611e4d57611e4c611d5e565b5b611e58848285611e0f565b509392505050565b600082601f830112611e7557611e74611d59565b5b8135611e85848260208601611e1e565b91505092915050565b600080600080600060a08688031215611eaa57611ea9611990565b5b6000611eb8888289016119e3565b9550506020611ec9888289016119e3565b9450506040611eda88828901611a19565b9350506060611eeb88828901611a19565b925050608086013567ffffffffffffffff811115611f0c57611f0b611995565b5b611f1888828901611e60565b9150509295509295909350565b60008060408385031215611f3c57611f3b611990565b5b6000611f4a858286016119e3565b9250506020611f5b858286016119e3565b9150509250929050565b7f4e487b7100000000000000000000000000000000000000000000000000000000600052602260045260246000fd5b60006002820490506001821680611fac57607f821691505b602082108103611fbf57611fbe611f65565b5b50919050565b7f496e76616c6964206e6f6e636500000000000000000000000000000000000000600082015250565b6000611ffb600d836118df565b915061200682611fc5565b602082019050919050565b6000602082019050818103600083015261202a81611fee565b9050919050565b600060a08201905061204660008301886118aa565b6120536020830187611bed565b6120606040830186611bed565b61206d6060830185611aa4565b61207a6080830184611aa4565b9695505050505050565b7f496e76616c6964207369676e6174757265000000000000000000000000000000600082015250565b60006120ba6011836118df565b91506120c582612084565b602082019050919050565b600060208201905081810360008301526120e9816120ad565b9050919050565b7f4e487b7100000000000000000000000000000000000000000000000000000000600052601160045260246000fd5b600061212a826119f8565b91507fffffffffffffffffffffffffffffffffffffffffffffffffffffffffffffffff820361215c5761215b6120f0565b5b600182019050919050565b600060608201905061217c6000830186611bed565b6121896020830185611aa4565b6121966040830184611aa4565b949350505050565b60006121a9826119f8565b91506121b4836119f8565b92508282019050808211156121cc576121cb6120f0565b5b92915050565b7f4e487b7100000000000000000000000000000000000000000000000000000000600052602160045260246000fd5b600060a08201905061221660008301886118aa565b61222360208301876118aa565b61223060408301866118aa565b61223d6060830185611aa4565b61224a6080830184611bed565b9695505050505050565b600060808201905061226960008301876118aa565b6122766020830186611b5b565b61228360408301856118aa565b61229060608301846118aa565b9594505050505056fea2646970667358221220d2243aa412762004252ec39f1bbae3a81c09aeb5e82aa2a2801462aaae8e2ea064736f6c63430008140033",
  "linkReferences": {},
  "deployedLinkReferences": {}
}